{
  "_format": "hh-sol-artifact-1",
  "contractName": "MyERC20",
  "sourceName": "contracts/MyERC20.sol",
  "abi": [
    {
      "inputs": [],
      "stateMutability": "nonpayable",
      "type": "constructor"
    },
    {
      "anonymous": false,
      "inputs": [
        {
          "indexed": true,
          "internalType": "address",
          "name": "owner",
          "type": "address"
        },
        {
          "indexed": true,
          "internalType": "address",
          "name": "spender",
          "type": "address"
        },
        {
          "indexed": false,
          "internalType": "uint256",
          "name": "value",
          "type": "uint256"
        }
      ],
      "name": "Approval",
      "type": "event"
    },
    {
      "anonymous": false,
      "inputs": [
        {
          "indexed": true,
          "internalType": "address",
          "name": "from",
          "type": "address"
        },
        {
          "indexed": true,
          "internalType": "address",
          "name": "to",
          "type": "address"
        },
        {
          "indexed": false,
          "internalType": "uint256",
          "name": "value",
          "type": "uint256"
        }
      ],
      "name": "Transfer",
      "type": "event"
    },
    {
      "inputs": [
        {
          "internalType": "address",
          "name": "owner",
          "type": "address"
        },
        {
          "internalType": "address",
          "name": "spender",
          "type": "address"
        }
      ],
      "name": "allowance",
      "outputs": [
        {
          "internalType": "uint256",
          "name": "",
          "type": "uint256"
        }
      ],
      "stateMutability": "view",
      "type": "function"
    },
    {
      "inputs": [
        {
          "internalType": "address",
          "name": "spender",
          "type": "address"
        },
        {
          "internalType": "uint256",
          "name": "amount",
          "type": "uint256"
        }
      ],
      "name": "approve",
      "outputs": [
        {
          "internalType": "bool",
          "name": "",
          "type": "bool"
        }
      ],
      "stateMutability": "nonpayable",
      "type": "function"
    },
    {
      "inputs": [
        {
          "internalType": "address",
          "name": "account",
          "type": "address"
        }
      ],
      "name": "balanceOf",
      "outputs": [
        {
          "internalType": "uint256",
          "name": "",
          "type": "uint256"
        }
      ],
      "stateMutability": "view",
      "type": "function"
    },
    {
      "inputs": [],
      "name": "decimals",
      "outputs": [
        {
          "internalType": "uint8",
          "name": "",
          "type": "uint8"
        }
      ],
      "stateMutability": "view",
      "type": "function"
    },
    {
      "inputs": [
        {
          "internalType": "address",
          "name": "spender",
          "type": "address"
        },
        {
          "internalType": "uint256",
          "name": "subtractedValue",
          "type": "uint256"
        }
      ],
      "name": "decreaseAllowance",
      "outputs": [
        {
          "internalType": "bool",
          "name": "",
          "type": "bool"
        }
      ],
      "stateMutability": "nonpayable",
      "type": "function"
    },
    {
      "inputs": [
        {
          "internalType": "address",
          "name": "from",
          "type": "address"
        },
        {
          "internalType": "address[]",
          "name": "to",
          "type": "address[]"
        },
        {
          "internalType": "uint256[]",
          "name": "amount",
          "type": "uint256[]"
        },
        {
          "internalType": "uint256",
          "name": "total",
          "type": "uint256"
        }
      ],
      "name": "distribute",
      "outputs": [],
      "stateMutability": "nonpayable",
      "type": "function"
    },
    {
      "inputs": [
        {
          "internalType": "address",
          "name": "spender",
          "type": "address"
        },
        {
          "internalType": "uint256",
          "name": "addedValue",
          "type": "uint256"
        }
      ],
      "name": "increaseAllowance",
      "outputs": [
        {
          "internalType": "bool",
          "name": "",
          "type": "bool"
        }
      ],
      "stateMutability": "nonpayable",
      "type": "function"
    },
    {
      "inputs": [],
      "name": "name",
      "outputs": [
        {
          "internalType": "string",
          "name": "",
          "type": "string"
        }
      ],
      "stateMutability": "view",
      "type": "function"
    },
    {
      "inputs": [],
      "name": "symbol",
      "outputs": [
        {
          "internalType": "string",
          "name": "",
          "type": "string"
        }
      ],
      "stateMutability": "view",
      "type": "function"
    },
    {
      "inputs": [],
      "name": "totalSupply",
      "outputs": [
        {
          "internalType": "uint256",
          "name": "",
          "type": "uint256"
        }
      ],
      "stateMutability": "view",
      "type": "function"
    },
    {
      "inputs": [
        {
          "internalType": "address",
          "name": "to",
          "type": "address"
        },
        {
          "internalType": "uint256",
          "name": "amount",
          "type": "uint256"
        }
      ],
      "name": "transfer",
      "outputs": [
        {
          "internalType": "bool",
          "name": "",
          "type": "bool"
        }
      ],
      "stateMutability": "nonpayable",
      "type": "function"
    },
    {
      "inputs": [
        {
          "internalType": "address",
          "name": "from",
          "type": "address"
        },
        {
          "internalType": "address",
          "name": "to",
          "type": "address"
        },
        {
          "internalType": "uint256",
          "name": "amount",
          "type": "uint256"
        }
      ],
      "name": "transferFrom",
      "outputs": [
        {
          "internalType": "bool",
          "name": "",
          "type": "bool"
        }
      ],
      "stateMutability": "nonpayable",
      "type": "function"
    }
  ],
  "bytecode": "0x60806040523480156200001157600080fd5b506040518060400160405280600781526020017f4d794552433230000000000000000000000000000000000000000000000000008152506040518060400160405280600281526020017f4d4500000000000000000000000000000000000000000000000000000000000081525081600390816200008f919062000324565b508060049081620000a1919062000324565b5050506200040b565b600081519050919050565b7f4e487b7100000000000000000000000000000000000000000000000000000000600052604160045260246000fd5b7f4e487b7100000000000000000000000000000000000000000000000000000000600052602260045260246000fd5b600060028204905060018216806200012c57607f821691505b602082108103620001425762000141620000e4565b5b50919050565b60008190508160005260206000209050919050565b60006020601f8301049050919050565b600082821b905092915050565b600060088302620001ac7fffffffffffffffffffffffffffffffffffffffffffffffffffffffffffffffff826200016d565b620001b886836200016d565b95508019841693508086168417925050509392505050565b6000819050919050565b6000819050919050565b600062000205620001ff620001f984620001d0565b620001da565b620001d0565b9050919050565b6000819050919050565b6200022183620001e4565b6200023962000230826200020c565b8484546200017a565b825550505050565b600090565b6200025062000241565b6200025d81848462000216565b505050565b5b8181101562000285576200027960008262000246565b60018101905062000263565b5050565b601f821115620002d4576200029e8162000148565b620002a9846200015d565b81016020851015620002b9578190505b620002d1620002c8856200015d565b83018262000262565b50505b505050565b600082821c905092915050565b6000620002f960001984600802620002d9565b1980831691505092915050565b6000620003148383620002e6565b9150826002028217905092915050565b6200032f82620000aa565b67ffffffffffffffff8111156200034b576200034a620000b5565b5b62000357825462000113565b6200036482828562000289565b600060209050601f8311600181146200039c576000841562000387578287015190505b62000393858262000306565b86555062000403565b601f198416620003ac8662000148565b60005b82811015620003d657848901518255600182019150602085019450602081019050620003af565b86831015620003f65784890151620003f2601f891682620002e6565b8355505b6001600288020188555050505b505050505050565b6115f9806200041b6000396000f3fe608060405234801561001057600080fd5b50600436106100b45760003560e01c806370a082311161007157806370a08231146101a357806395d89b41146101d3578063a1d158a7146101f1578063a457c2d71461020d578063a9059cbb1461023d578063dd62ed3e1461026d576100b4565b806306fdde03146100b9578063095ea7b3146100d757806318160ddd1461010757806323b872dd14610125578063313ce567146101555780633950935114610173575b600080fd5b6100c161029d565b6040516100ce9190610bc5565b60405180910390f35b6100f160048036038101906100ec9190610c8f565b61032f565b6040516100fe9190610cea565b60405180910390f35b61010f610352565b60405161011c9190610d14565b60405180910390f35b61013f600480360381019061013a9190610d2f565b61035c565b60405161014c9190610cea565b60405180910390f35b61015d61038b565b60405161016a9190610d9e565b60405180910390f35b61018d60048036038101906101889190610c8f565b610394565b60405161019a9190610cea565b60405180910390f35b6101bd60048036038101906101b89190610db9565b6103cb565b6040516101ca9190610d14565b60405180910390f35b6101db610413565b6040516101e89190610bc5565b60405180910390f35b61020b60048036038101906102069190610ff1565b6104a5565b005b61022760048036038101906102229190610c8f565b610537565b6040516102349190610cea565b60405180910390f35b61025760048036038101906102529190610c8f565b6105ae565b6040516102649190610cea565b60405180910390f35b61028760048036038101906102829190611090565b6105d1565b6040516102949190610d14565b60405180910390f35b6060600380546102ac906110ff565b80601f01602080910402602001604051908101604052809291908181526020018280546102d8906110ff565b80156103255780601f106102fa57610100808354040283529160200191610325565b820191906000526020600020905b81548152906001019060200180831161030857829003601f168201915b5050505050905090565b60008061033a610658565b9050610347818585610660565b600191505092915050565b6000600254905090565b600080610367610658565b9050610374858285610829565b61037f8585856108b5565b60019150509392505050565b60006012905090565b60008061039f610658565b90506103c08185856103b185896105d1565b6103bb919061115f565b610660565b600191505092915050565b60008060008373ffffffffffffffffffffffffffffffffffffffff1673ffffffffffffffffffffffffffffffffffffffff168152602001908152602001600020549050919050565b606060048054610422906110ff565b80601f016020809104026020016040519081016040528092919081815260200182805461044e906110ff565b801561049b5780601f106104705761010080835404028352916020019161049b565b820191906000526020600020905b81548152906001019060200180831161047e57829003601f168201915b5050505050905090565b60006104b0856103cb565b905060006104be868361032f565b9050801561052f5760005b838160ff16101561052d5761051987878360ff16815181106104ee576104ed611193565b5b6020026020010151878460ff168151811061050c5761050b611193565b5b602002602001015161035c565b508080610525906111c2565b9150506104c9565b505b505050505050565b600080610542610658565b9050600061055082866105d1565b905083811015610595576040517f08c379a000000000000000000000000000000000000000000000000000000000815260040161058c9061125d565b60405180910390fd5b6105a28286868403610660565b60019250505092915050565b6000806105b9610658565b90506105c68185856108b5565b600191505092915050565b6000600160008473ffffffffffffffffffffffffffffffffffffffff1673ffffffffffffffffffffffffffffffffffffffff16815260200190815260200160002060008373ffffffffffffffffffffffffffffffffffffffff1673ffffffffffffffffffffffffffffffffffffffff16815260200190815260200160002054905092915050565b600033905090565b600073ffffffffffffffffffffffffffffffffffffffff168373ffffffffffffffffffffffffffffffffffffffff16036106cf576040517f08c379a00000000000000000000000000000000000000000000000000000000081526004016106c6906112ef565b60405180910390fd5b600073ffffffffffffffffffffffffffffffffffffffff168273ffffffffffffffffffffffffffffffffffffffff160361073e576040517f08c379a000000000000000000000000000000000000000000000000000000000815260040161073590611381565b60405180910390fd5b80600160008573ffffffffffffffffffffffffffffffffffffffff1673ffffffffffffffffffffffffffffffffffffffff16815260200190815260200160002060008473ffffffffffffffffffffffffffffffffffffffff1673ffffffffffffffffffffffffffffffffffffffff168152602001908152602001600020819055508173ffffffffffffffffffffffffffffffffffffffff168373ffffffffffffffffffffffffffffffffffffffff167f8c5be1e5ebec7d5bd14f71427d1e84f3dd0314c0f7b2291e5b200ac8c7c3b9258360405161081c9190610d14565b60405180910390a3505050565b600061083584846105d1565b90507fffffffffffffffffffffffffffffffffffffffffffffffffffffffffffffffff81146108af57818110156108a1576040517f08c379a0000000000000000000000000000000000000000000000000000000008152600401610898906113ed565b60405180910390fd5b6108ae8484848403610660565b5b50505050565b600073ffffffffffffffffffffffffffffffffffffffff168373ffffffffffffffffffffffffffffffffffffffff1603610924576040517f08c379a000000000000000000000000000000000000000000000000000000000815260040161091b9061147f565b60405180910390fd5b600073ffffffffffffffffffffffffffffffffffffffff168273ffffffffffffffffffffffffffffffffffffffff1603610993576040517f08c379a000000000000000000000000000000000000000000000000000000000815260040161098a90611511565b60405180910390fd5b61099e838383610b2b565b60008060008573ffffffffffffffffffffffffffffffffffffffff1673ffffffffffffffffffffffffffffffffffffffff16815260200190815260200160002054905081811015610a24576040517f08c379a0000000000000000000000000000000000000000000000000000000008152600401610a1b906115a3565b60405180910390fd5b8181036000808673ffffffffffffffffffffffffffffffffffffffff1673ffffffffffffffffffffffffffffffffffffffff16815260200190815260200160002081905550816000808573ffffffffffffffffffffffffffffffffffffffff1673ffffffffffffffffffffffffffffffffffffffff168152602001908152602001600020600082825401925050819055508273ffffffffffffffffffffffffffffffffffffffff168473ffffffffffffffffffffffffffffffffffffffff167fddf252ad1be2c89b69c2b068fc378daa952ba7f163c4a11628f55a4df523b3ef84604051610b129190610d14565b60405180910390a3610b25848484610b30565b50505050565b505050565b505050565b600081519050919050565b600082825260208201905092915050565b60005b83811015610b6f578082015181840152602081019050610b54565b60008484015250505050565b6000601f19601f8301169050919050565b6000610b9782610b35565b610ba18185610b40565b9350610bb1818560208601610b51565b610bba81610b7b565b840191505092915050565b60006020820190508181036000830152610bdf8184610b8c565b905092915050565b6000604051905090565b600080fd5b600080fd5b600073ffffffffffffffffffffffffffffffffffffffff82169050919050565b6000610c2682610bfb565b9050919050565b610c3681610c1b565b8114610c4157600080fd5b50565b600081359050610c5381610c2d565b92915050565b6000819050919050565b610c6c81610c59565b8114610c7757600080fd5b50565b600081359050610c8981610c63565b92915050565b60008060408385031215610ca657610ca5610bf1565b5b6000610cb485828601610c44565b9250506020610cc585828601610c7a565b9150509250929050565b60008115159050919050565b610ce481610ccf565b82525050565b6000602082019050610cff6000830184610cdb565b92915050565b610d0e81610c59565b82525050565b6000602082019050610d296000830184610d05565b92915050565b600080600060608486031215610d4857610d47610bf1565b5b6000610d5686828701610c44565b9350506020610d6786828701610c44565b9250506040610d7886828701610c7a565b9150509250925092565b600060ff82169050919050565b610d9881610d82565b82525050565b6000602082019050610db36000830184610d8f565b92915050565b600060208284031215610dcf57610dce610bf1565b5b6000610ddd84828501610c44565b91505092915050565b600080fd5b7f4e487b7100000000000000000000000000000000000000000000000000000000600052604160045260246000fd5b610e2382610b7b565b810181811067ffffffffffffffff82111715610e4257610e41610deb565b5b80604052505050565b6000610e55610be7565b9050610e618282610e1a565b919050565b600067ffffffffffffffff821115610e8157610e80610deb565b5b602082029050602081019050919050565b600080fd5b6000610eaa610ea584610e66565b610e4b565b90508083825260208201905060208402830185811115610ecd57610ecc610e92565b5b835b81811015610ef65780610ee28882610c44565b845260208401935050602081019050610ecf565b5050509392505050565b600082601f830112610f1557610f14610de6565b5b8135610f25848260208601610e97565b91505092915050565b600067ffffffffffffffff821115610f4957610f48610deb565b5b602082029050602081019050919050565b6000610f6d610f6884610f2e565b610e4b565b90508083825260208201905060208402830185811115610f9057610f8f610e92565b5b835b81811015610fb95780610fa58882610c7a565b845260208401935050602081019050610f92565b5050509392505050565b600082601f830112610fd857610fd7610de6565b5b8135610fe8848260208601610f5a565b91505092915050565b6000806000806080858703121561100b5761100a610bf1565b5b600061101987828801610c44565b945050602085013567ffffffffffffffff81111561103a57611039610bf6565b5b61104687828801610f00565b935050604085013567ffffffffffffffff81111561106757611066610bf6565b5b61107387828801610fc3565b925050606061108487828801610c7a565b91505092959194509250565b600080604083850312156110a7576110a6610bf1565b5b60006110b585828601610c44565b92505060206110c685828601610c44565b9150509250929050565b7f4e487b7100000000000000000000000000000000000000000000000000000000600052602260045260246000fd5b6000600282049050600182168061111757607f821691505b60208210810361112a576111296110d0565b5b50919050565b7f4e487b7100000000000000000000000000000000000000000000000000000000600052601160045260246000fd5b600061116a82610c59565b915061117583610c59565b925082820190508082111561118d5761118c611130565b5b92915050565b7f4e487b7100000000000000000000000000000000000000000000000000000000600052603260045260246000fd5b60006111cd82610d82565b915060ff82036111e0576111df611130565b5b600182019050919050565b7f45524332303a2064656372656173656420616c6c6f77616e63652062656c6f7760008201527f207a65726f000000000000000000000000000000000000000000000000000000602082015250565b6000611247602583610b40565b9150611252826111eb565b604082019050919050565b600060208201905081810360008301526112768161123a565b9050919050565b7f45524332303a20617070726f76652066726f6d20746865207a65726f2061646460008201527f7265737300000000000000000000000000000000000000000000000000000000602082015250565b60006112d9602483610b40565b91506112e48261127d565b604082019050919050565b60006020820190508181036000830152611308816112cc565b9050919050565b7f45524332303a20617070726f766520746f20746865207a65726f20616464726560008201527f7373000000000000000000000000000000000000000000000000000000000000602082015250565b600061136b602283610b40565b91506113768261130f565b604082019050919050565b6000602082019050818103600083015261139a8161135e565b9050919050565b7f45524332303a20696e73756666696369656e7420616c6c6f77616e6365000000600082015250565b60006113d7601d83610b40565b91506113e2826113a1565b602082019050919050565b60006020820190508181036000830152611406816113ca565b9050919050565b7f45524332303a207472616e736665722066726f6d20746865207a65726f20616460008201527f6472657373000000000000000000000000000000000000000000000000000000602082015250565b6000611469602583610b40565b91506114748261140d565b604082019050919050565b600060208201905081810360008301526114988161145c565b9050919050565b7f45524332303a207472616e7366657220746f20746865207a65726f206164647260008201527f6573730000000000000000000000000000000000000000000000000000000000602082015250565b60006114fb602383610b40565b91506115068261149f565b604082019050919050565b6000602082019050818103600083015261152a816114ee565b9050919050565b7f45524332303a207472616e7366657220616d6f756e742065786365656473206260008201527f616c616e63650000000000000000000000000000000000000000000000000000602082015250565b600061158d602683610b40565b915061159882611531565b604082019050919050565b600060208201905081810360008301526115bc81611580565b905091905056fea2646970667358221220b39cb789926783beba142e270047268e7dc6f86dbc91da7e39a6ae459229596c64736f6c63430008120033",
  "linkReferences": {},
  "deployedLinkReferences": {}
}